:10080000D2807FE87E03120A40C2807FE87E031216
:100810000A40D2817FE87E03120A40C2817FE87ECF
:1008200003120A40D2827FE87E03120A40C2827F0E
:10083000E87E03120A40D2837FE87E03120A40C298
:10084000837FE87E03120A40D2847FE87E03120A87
:1008500040C2847FE87E03120A40D2857FE87E038F
:10086000120A40C2857FE87E03120A40D2867FE8E2
:100870007E03120A40C2867FE87E03120A40D287B6
:100880007FE87E03120A40C2877FE87E03020A40A7
:10089000D2907FE87E03120A40C2907FE87E031266
:1008A0000A40D2917FE87E03120A40C2917FE87E1F
:1008B00003120A40D2927FE87E03120A40C2927F5E
:1008C000E87E03120A40D2937FE87E03120A40C2F8
:1008D000937FE87E03120A40D2947FE87E03120AD7
:1008E00040C2947FE87E03120A40D2957FE87E03DF
:1008F000120A40C2957FE87E03120A40D2967FE832
:100900007E03120A40C2967FE87E03120A40D29705
:100910007FE87E03120A40C2977FE87E03020A4006
:10092000D2A07FE87E03120A40C2A07FE87E0312B5
:100930000A40D2A17FE87E03120A40C2A17FE87E6E
:1009400003120A40D2A27FE87E03120A40C2A27FAD
:10095000E87E03120A40D2A37FE87E03120A40C257
:10096000A37FE87E03120A40D2A47FE87E03120A26
:1009700040C2A47FE87E03120A40D2A57FE87E032E
:10098000120A40C2A57FE87E03120A40D2A67FE881
:100990007E03120A40C2A67FE87E03120A40D2A755
:1009A0007FE87E03120A40C2A77FE87E03020A4066
:1009B000D2B07FE87E03120A40C2B07FE87E031205
:1009C0000A40D2B17FE87E03120A40C2B17FE87EBE
:1009D00003120A40D2B27FE87E03120A40C2B27FFD
:1009E000E87E03120A40D2B37FE87E03120A40C2B7
:1009F000B37FE87E03120A40D2B47FE87E03120A76
:100A000040C2B47FE87E03120A40D2B57FE87E037D
:100A1000120A40C2B57FE87E03120A40D2B67FE8D0
:100A20007E03120A40C2B67FE87E03120A40D2B7A4
:100A30007FE87E03120A40C2B77FE87E03020A40C5
:060A8D00120A75020800C8
:0C0A7500120A93120A97120A9B020A9FB1
:040A9300E4F58022E4
:040A9700E4F59022D0
:040A9B00E4F5A022BC
:040A9F00E4F5B022A8
:040A40008E088F0984
:100A4400E4F50AF50BC3E50B9509E50A9508500D85
:0D0A5400120A62050BE50B70EC050A80E844
:010A61002272
:100A6200758901758CFC758A66D28C308DFDC28CBD
:030A7200C28D2210
:03000000020A8170
:0C0A8100787FE4F6D8FD75810B020A8D29
:00000001FF
